:100000000C942A000C9434000C9434000C943400AA
:100010000C9434000C9434000C9434000C94340090
:100020000C9434000C9434000C9434000C94340080
:100030000C9434000C9434000C9434000C94340070
:100040000C9434000C9434000C9434000C94340060
:100050000C94340011241FBECFE5D8E0DEBFCDBF25
:100060000E9436000C9413020C94000041E060E002
:1000700081E40E948B0041E061E081E40E948B00FA
:1000800041E062E081E40E948B0041E060E083E4B3
:100090000E948B0041E061E083E40E948B0040E01D
:1000A00061E082E40E948B0040E062E082E40E9412
:1000B0008B0061E082E40E941601C82F62E082E4B6
:1000C0000E941601813081F441E060E081E40E94E9
:1000D000880141E060E083E40E94880140E061E043
:1000E00083E40E948801E5CFC13019F740E060E069
:1000F00083E40E94880140E061E083E40E9488017B
:1001000040E060E081E40E94880141E061E081E438
:100110000E948801CECF9FEB980F943008F07EC0EC
:10012000683008F07DC0423008F07CC0823429F18C
:1001300018F4813439F078C08334D1F1843409F46F
:1001400052C072C0413061F42AB381E090E002C035
:10015000880F991F6A95E2F7822B8ABB81E0089588
:100160002AB381E090E002C0880F991F6A95E2F7F8
:10017000809582238ABB81E00895413061F427B3E2
:1001800081E090E002C0880F991F6A95E2F7822B08
:1001900087BB81E0089527B381E090E002C0880F1B
:1001A000991F6A95E2F78095822387BB81E00895C5
:1001B000413061F424B381E090E002C0880F991FC0
:1001C0006A95E2F7822B84BB81E0089524B381E035
:1001D00090E002C0880F991F6A95E2F7809582230C
:1001E00084BB81E00895413061F421B381E090E067
:1001F00002C0880F991F6A95E2F7822B81BB81E0CC
:10020000089521B381E090E002C0880F991F6A959C
:10021000E2F78095822381BB81E0089580E0089514
:1002200080E0089580E0089580E00895CF93DF9303
:100230001F92CDB7DEB719829FEB980F943008F06C
:1002400062C0683008F05FC08234F9F018F481347D
:1002500039F059C0833471F1843409F440C053C07B
:1002600049B381E090E09C01062E02C0220F331FAB
:100270000A94E2F7842F90E08223932302C095959D
:1002800087956A95E2F789833EC046B381E090E0A6
:100290009C01062E02C0220F331F0A94E2F7842F1E
:1002A00090E08223932302C0959587956A95E2F7A3
:1002B000898329C043B381E090E09C01062E02C0EF
:1002C000220F331F0A94E2F7842F90E082239323B6
:1002D00002C0959587956A95E2F7898314C040B36B
:1002E00081E090E09C01062E02C0220F331F0A9489
:1002F000E2F7842F90E08223932302C0959587959F
:100300006A95E2F7898389810F90DF91CF910895F3
:100310009FEB980F943008F07EC0683008F07DC0E5
:10032000423008F07CC0823429F118F4813439F06D
:1003300078C08334D1F1843409F452C072C04130A2
:1003400061F42BB381E090E002C0880F991F6A9599
:10035000E2F7822B8BBB81E008952BB381E090E024
:1003600002C0880F991F6A95E2F7809582238BBBA4
:1003700081E00895413061F428B381E090E002C04B
:10038000880F991F6A95E2F7822B88BB81E0089558
:1003900028B381E090E002C0880F991F6A95E2F7C8
:1003A0008095822388BB81E00895413061F425B3B4
:1003B00081E090E002C0880F991F6A95E2F7822BD6
:1003C00085BB81E0089525B381E090E002C0880FED
:1003D000991F6A95E2F78095822385BB81E0089595
:1003E000413061F422B381E090E002C0880F991F90
:1003F0006A95E2F7822B82BB81E0089522B381E007
:1004000090E002C0880F991F6A95E2F780958223D9
:1004100082BB81E0089580E0089580E0089580E047
:0A042000089580E00895F894FFCFDE
:00000001FF
