S01200004C43445F6472697665722E7372656354
S11300000C942A000C9434000C9434000C943400A6
S11300100C9434000C9434000C9434000C9434008C
S11300200C9434000C9434000C9434000C9434007C
S11300300C9434000C9434000C9434000C9434006C
S11300400C9434000C9434000C9434000C9434005C
S11300500C94340011241FBECFE5D8E0DEBFCDBF21
S11300600E946C010C9486010C9400008430B0F45E
S11300706230B0F4813049F028F0823049F08330A6
S113008051F010C06ABB81E0089567BB81E0089518
S113009064BB81E0089561BB81E0089580E0089528
S11300A080E0089580E008958430B0F46230B0F4C4
S11300B0813049F028F0823049F0833051F010C08B
S11300C06BBB81E0089568BB81E0089565BB81E066
S11300D0089562BB81E0089580E0089580E008956A
S11300E080E00895843008F07BC0683008F07AC05E
S11300F0423008F079C0813011F130F08230D1F112
S1130100833009F452C072C0413061F42AB381E0F3
S113011090E002C0880F991F6A95E2F7822B8ABB90
S113012081E008952AB381E090E002C0880F991F0E
S11301306A95E2F7809582238ABB81E00895413075
S113014061F427B381E090E002C0880F991F6A959B
S1130150E2F7822B87BB81E0089527B381E090E02A
S113016002C0880F991F6A95E2F78095822387BBA6
S113017081E00895413061F424B381E090E002C04D
S1130180880F991F6A95E2F7822B84BB81E008955A
S113019024B381E090E002C0880F991F6A95E2F7CA
S11301A08095822384BB81E00895413061F421B3BA
S11301B081E090E002C0880F991F6A95E2F7822BD4
S11301C081BB81E0089521B381E090E002C0880FF3
S11301D0991F6A95E2F78095822381BB81E0089597
S11301E080E0089580E0089580E0089580E0089517
S11301F0CF93C82F40E060E080E00E94720040E0AE
S113020061E080E00E9472006C2F82E00E94540042
S113021041E062E080E00E94720082E08A95F1F79A
S113022000C040E062E080E00E947200CF91089537
S11302308FE59AEE0197F1F700C0000082E00E947A
S1130240F8008FE295E70197F1F700C0000088E31A
S11302500E94F8008FEC97E00197F1F700C00000CE
S11302608CE00E94F8008FEC97E00197F1F700C052
S1130270000081E00E94F8008FE295E70197F1F712
S113028000C0000086E00E94F8008FE99FE001971B
S1130290F1F700C000000895CF93C82F41E060E05B
S11302A080E00E94720040E061E080E00E94720001
S11302B06C2F82E00E94540041E062E080E00E94E2
S11302C0720082E08A95F1F700C040E062E080E0CD
S11302D00E947200CF9108950E94180161E080E0AD
S11302E00E94360061E083E00E94360088E40E94A8
S11302F04C0181E40E944C012FEF80E792E02150F1
S113030080409040E1F700C00000F0CFF894FFCFA8
S9030000FC
