S016000044494F5F42595F4D4F53414C41482E73726563D4
S11300000C942A000C9434000C9434000C943400A6
S11300100C9434000C9434000C9434000C9434008C
S11300200C9434000C9434000C9434000C9434007C
S11300300C9434000C9434000C9434000C9434006C
S11300400C9434000C9434000C9434000C9434005C
S11300500C94340011241FBECFE5D8E0DEBFCDBF21
S11300600E9451010C9493010C9400008430B0F46C
S11300706230B0F4813049F028F0823049F08330A6
S113008051F010C06ABB81E0089567BB81E0089518
S113009064BB81E0089561BB81E0089580E0089528
S11300A080E0089580E00895CF93DF931F92CDB749
S11300B0DEB71982843008F064C0683008F063C089
S11300C08130E9F030F0823081F1833009F443C0AB
S11300D05CC049B381E090E09C01062E02C0220F6F
S11300E0331F0A94E2F7842F90E08223932302C003
S11300F0959587956A95E2F7898381E047C046B371
S113010081E090E09C01062E02C0220F331F0A9466
S1130110E2F7842F90E08223932302C0959587957C
S11301206A95E2F7898381E031C043B381E090E0CE
S11301309C01062E02C0220F331F0A94E2F7842F7B
S113014090E08223932302C0959587956A95E2F700
S1130150898381E01BC040B381E090E09C01062EBE
S113016002C0220F331F0A94E2F7842F90E0822307
S1130170932302C0959587956A95E2F7898381E078
S113018005C080E003C080E001C080E099810F9049
S1130190DF91CF910895843008F07BC0683008F077
S11301A07AC0423008F079C0813011F130F08230E9
S11301B0D1F1833009F452C072C0413061F42BB3E1
S11301C081E090E002C0880F991F6A95E2F7822BC4
S11301D08BBB81E008952BB381E090E002C0880FCF
S11301E0991F6A95E2F7809582238BBB81E008957D
S11301F0413061F428B381E090E002C0880F991F78
S11302006A95E2F7822B88BB81E0089528B381E0E8
S113021090E002C0880F991F6A95E2F780958223C7
S113022088BB81E00895413061F425B381E090E01A
S113023002C0880F991F6A95E2F7822B85BB81E083
S1130240089525B381E090E002C0880F991F6A9554
S1130250E2F78095822385BB81E00895413061F403
S113026022B381E090E002C0880F991F6A95E2F7FB
S1130270822B82BB81E0089522B381E090E002C02A
S1130280880F991F6A95E2F78095822382BB81E0EB
S1130290089580E0089580E0089580E0089580E066
S11302A0089560E081E00E94360061E083E00E94EE
S11302B0360061E081E00E9454008130D1F441E0D5
S11302C060E083E00E94CB0040E061E083E00E94B4
S11302D0CB0041E062E083E00E94CB0040E063E0B9
S11302E083E00E94CB0041E064E083E00E94CB0005
S11302F0E0CF40E060E083E00E94CB0041E061E0B9
S113030083E00E94CB0040E062E083E00E94CB00E7
S113031041E063E083E00E94CB0040E064E083E0DE
S10D03200E94CB00C6CFF894FFCF73
S9030000FC
