:100000000C942A000C9434000C9434000C943400AA
:100010000C9434000C9434000C9434000C94340090
:100020000C9434000C9434000C9434000C94340080
:100030000C9434000C9434000C9434000C94340070
:100040000C9434000C9434000C9434000C94340060
:100050000C94340011241FBECFE5D8E0DEBFCDBF25
:100060000E94F8000C9432010C9400008430B0F42B
:100070006230B0F4813049F028F0823049F08330AA
:1000800051F010C06ABB81E0089567BB81E008951C
:1000900064BB81E0089561BB81E0089580E008952C
:1000A00080E0089580E008958430B0F46230B0F4C8
:1000B000813049F028F0823049F0833051F010C08F
:1000C0006BBB81E0089568BB81E0089565BB81E06A
:1000D000089562BB81E0089580E0089580E008956E
:1000E00080E00895843008F07BC0683008F07AC062
:1000F000423008F079C0813011F130F08230D1F116
:10010000833009F452C072C0413061F42BB381E0F6
:1001100090E002C0880F991F6A95E2F7822B8BBB93
:1001200081E008952BB381E090E002C0880F991F11
:100130006A95E2F7809582238BBB81E00895413078
:1001400061F428B381E090E002C0880F991F6A959E
:10015000E2F7822B88BB81E0089528B381E090E02C
:1001600002C0880F991F6A95E2F78095822388BBA9
:1001700081E00895413061F425B381E090E002C050
:10018000880F991F6A95E2F7822B85BB81E008955D
:1001900025B381E090E002C0880F991F6A95E2F7CD
:1001A0008095822385BB81E00895413061F422B3BC
:1001B00081E090E002C0880F991F6A95E2F7822BD8
:1001C00082BB81E0089522B381E090E002C0880FF5
:1001D000991F6A95E2F78095822382BB81E008959A
:1001E00080E0089580E0089580E0089580E008951B
:1001F00061E081E00E94360061E080E00E9436000C
:1002000061E082E00E9436006FE082E00E945400CC
:100210002FEF89E698E1215080409040E1F700C03F
:10022000000041E060E082E00E94720041E067E08F
:1002300082E00E94720041E066E082E00E9472006B
:1002400061E180E00E9454002FEF84E39CE02150A4
:1002500080409040E1F700C0000061E080E00E9433
:080260005400D2CFF894FFCF47
:00000001FF
