:100000000C942A000C9434000C9434000C943400AA
:100010000C9434000C9434000C9434000C94340090
:100020000C9434000C9434000C9434000C94340080
:100030000C9434000C9434000C9434000C94340070
:100040000C9434000C9434000C9434000C94340060
:100050000C94340011241FBECFE5D8E0DEBFCDBF25
:100060000E9436000C9497010C94000041E060E07F
:1000700081E40E94A70041E061E081E40E94A700C2
:1000800041E062E081E40E94A70041E060E083E497
:100090000E94A70041E061E083E40E94A70041E0E4
:1000A00060E081E40E941F0141E060E083E40E947F
:1000B0001F0140E061E083E40E941F012FE382E41E
:1000C0009FE0215080409040E1F700C0000040E0F8
:1000D00060E081E40E941F0141E061E081E40E9450
:1000E0001F0140E060E083E40E941F0140E061E006
:1000F00083E40E941F012FE382E49FE021508040AF
:100100009040E1F700C0000040E061E081E40E941F
:100110001F0141E062E081E40E941F0141E061E0D3
:1001200083E40E941F0140E060E083E40E941F011D
:100130002FE382E49FE0215080409040E1F700C02F
:10014000000040E062E081E40E941F01A8CF8234F9
:1001500029F118F4813439F008958334D1F18434CD
:1001600009F452C00895413059F42AB381E090E077
:1001700002C0880F991F6A95E2F7822B8ABB089507
:1001800041115CC02AB381E090E002C0880F991F42
:100190006A95E2F7809582238ABB0895413059F42D
:1001A00027B381E090E002C0880F991F6A95E2F7BB
:1001B000822B87BB0895411141C027B381E090E0B5
:1001C00002C0880F991F6A95E2F78095822387BB4A
:1001D0000895413059F424B381E090E002C0880FC3
:1001E000991F6A95E2F7822B84BB0895411126C0BE
:1001F00024B381E090E002C0880F991F6A95E2F76E
:100200008095822384BB0895413059F421B381E065
:1002100090E002C0880F991F6A95E2F7822B81BB9C
:10022000089541110BC021B381E090E002C0880F16
:10023000991F6A95E2F78095822381BB08958234E5
:1002400029F118F4813439F008958334D1F18434DC
:1002500009F452C00895413059F42BB381E090E085
:1002600002C0880F991F6A95E2F7822B8BBB089515
:1002700041115CC02BB381E090E002C0880F991F50
:100280006A95E2F7809582238BBB0895413059F43B
:1002900028B381E090E002C0880F991F6A95E2F7C9
:1002A000822B88BB0895411141C028B381E090E0C2
:1002B00002C0880F991F6A95E2F78095822388BB58
:1002C0000895413059F425B381E090E002C0880FD1
:1002D000991F6A95E2F7822B85BB0895411126C0CC
:1002E00025B381E090E002C0880F991F6A95E2F77C
:1002F0008095822385BB0895413059F422B381E073
:1003000090E002C0880F991F6A95E2F7822B82BBAA
:10031000089541110BC022B381E090E002C0880F24
:10032000991F6A95E2F78095822382BB0895F8941D
:02033000FFCFFD
:00000001FF
