S0140000656D6265646465645F6C61622E7372656358
S11300000C942A000C9434000C9434000C943400A6
S11300100C9434000C9434000C9434000C9434008C
S11300200C9434000C9434000C9434000C9434007C
S11300300C9434000C9434000C9434000C9434006C
S11300400C9434000C9434000C9434000C9434005C
S11300500C94340011241FBECFE5D8E0DEBFCDBF21
S11300600E9436000C9457010C94000041E065E0B6
S113007081E40E94410041E065E081E40E94CC00FB
S1130080FACF9FEB980F943008F07EC0683008F0E8
S11300907DC0423008F07CC0823429F118F48134E8
S11300A039F078C08334D1F1843409F452C072C079
S11300B0413061F42AB381E090E002C0880F991FB7
S11300C06A95E2F7822B8ABB81E008952AB381E026
S11300D090E002C0880F991F6A95E2F78095822309
S11300E08ABB81E00895413061F427B381E090E058
S11300F002C0880F991F6A95E2F7822B87BB81E0C3
S1130100089527B381E090E002C0880F991F6A9593
S1130110E2F78095822387BB81E00895413061F442
S113012024B381E090E002C0880F991F6A95E2F73A
S1130130822B84BB81E0089524B381E090E002C067
S1130140880F991F6A95E2F78095822384BB81E02A
S11301500895413061F421B381E090E002C0880F3A
S1130160991F6A95E2F7822B81BB81E0089521B340
S113017081E090E002C0880F991F6A95E2F78095AC
S1130180822381BB81E0089580E0089580E0089592
S113019080E0089580E008959FEB980F943008F074
S11301A07EC0683008F07DC0423008F07CC08234E4
S11301B029F118F4813439F078C08334D1F18434CE
S11301C009F452C072C0413061F42BB381E090E075
S11301D002C0880F991F6A95E2F7822B8BBB81E0DE
S11301E008952BB381E090E002C0880F991F6A95AF
S11301F0E2F7809582238BBB81E00895413061F45E
S113020028B381E090E002C0880F991F6A95E2F755
S1130210822B88BB81E0089528B381E090E002C07E
S1130220880F991F6A95E2F78095822388BB81E045
S11302300895413061F425B381E090E002C0880F55
S1130240991F6A95E2F7822B85BB81E0089525B357
S113025081E090E002C0880F991F6A95E2F78095CB
S1130260822385BB81E00895413061F422B381E0AB
S113027090E002C0880F991F6A95E2F7822B82BB37
S113028081E0089522B381E090E002C0880F991FB5
S11302906A95E2F78095822382BB81E0089580E02D
S11302A0089580E0089580E0089580E00895F8942A
S10502B0FFCF7A
S9030000FC
