:100000000C9430000C94A3040C94A3040C94A3044B
:100010000C94A3040C94A3040C94A3040C94A304C4
:100020000C94A3040C94A3040C94A3040C94A304B4
:100030000C94A3040C94A3040C94A3040C94A304A4
:100040000C94A3040C94A3040C94A3040C94A30494
:100050000C94A304006000780009540078007B80B1
:1000600011241FBECFE5D8E0DEBFCDBFE4E5F0E050
:1000700040E017C0B591A59135912591059107FDF7
:100080000CC095918591EF01F92FE82F05900D9205
:10009000A217B307D9F7FE0104C01D92A217B30738
:1000A000E1F7E036F40731F70E94C1030C9498049D
:0400B000F894FFCFF2
:1000B400CF93C82F40E060E081E40E946B0240E0EF
:1000C40061E081E40E946B0241E062E081E40E940D
:1000D4006B0280917800811138C04C2F441F442753
:1000E400441F67E082E40E946B024C2F407450E08E
:1000F400042E452F000C441F550B000C441F551FA4
:1001040066E082E40E946B024C2F407250E05595E9
:1001140047955595479555954795559547955595C3
:10012400479565E082E40E946B02C0714C2F50E059
:1001340055954795559547955595479555954795A3
:1001440064E082E40E946B025EC04C2F441F44278B
:10015400441F67E082E40E946B024C2F407450E01D
:10016400042E452F000C441F550B000C441F551F33
:1001740066E082E40E946B024C2F407250E0559579
:100184004795559547955595479555954795559553
:10019400479565E082E40E946B024C2F407150E069
:1001A4005595479555954795559547955595479533
:1001B40064E082E40E946B024C2F487050E0559535
:1001C4004795559547955595479563E082E40E9478
:1001D4006B024C2F447050E05595479555954795C3
:1001E40062E082E40E946B024C2F427050E055950D
:1001F400479561E082E40E946B024C2F417060E0FD
:1002040082E40E946B0240E062E081E40E946B029F
:100214008FE097E20197F1F700C0000041E062E04F
:1002240081E40E946B028FE19EE40197F1F700C024
:060234000000CF910895C7
:10023A00CF93C82F41E060E081E40E946B0240E066
:10024A0061E081E40E946B0241E062E081E40E9485
:10025A006B0280917800811138C04C2F441F4427CB
:10026A00441F67E082E40E946B024C2F407450E006
:10027A00042E452F000C441F550B000C441F551F1C
:10028A0066E082E40E946B024C2F407250E0559562
:10029A00479555954795559547955595479555953C
:1002AA00479565E082E40E946B02C0714C2F50E0D2
:1002BA00559547955595479555954795559547951C
:1002CA0064E082E40E946B025EC04C2F441F442704
:1002DA00441F67E082E40E946B024C2F407450E096
:1002EA00042E452F000C441F550B000C441F551FAC
:1002FA0066E082E40E946B024C2F407250E05595F2
:10030A0047955595479555954795559547955595CB
:10031A00479565E082E40E946B024C2F407150E0E1
:10032A0055954795559547955595479555954795AB
:10033A0064E082E40E946B024C2F487050E05595AD
:10034A004795559547955595479563E082E40E94F0
:10035A006B024C2F447050E055954795559547953B
:10036A0062E082E40E946B024C2F427050E0559585
:10037A00479561E082E40E946B024C2F417060E075
:10038A0082E40E946B0240E062E081E40E946B0218
:10039A008FE097E20197F1F700C0000041E062E0C8
:1003AA0081E40E946B028FE19EE40197F1F700C09D
:0603BA000000CF91089540
:1003C0009FEB980F943008F07EC0683008F07DC035
:1003D000423008F07CC0823429F118F4813439F0BD
:1003E00078C08334D1F1843409F452C072C04130F2
:1003F00061F42AB381E090E002C0880F991F6A95EA
:10040000E2F7822B8ABB81E008952AB381E090E075
:1004100002C0880F991F6A95E2F7809582238ABBF4
:1004200081E00895413061F427B381E090E002C09B
:10043000880F991F6A95E2F7822B87BB81E00895A8
:1004400027B381E090E002C0880F991F6A95E2F718
:100450008095822387BB81E00895413061F424B305
:1004600081E090E002C0880F991F6A95E2F7822B25
:1004700084BB81E0089524B381E090E002C0880F3E
:10048000991F6A95E2F78095822384BB81E00895E5
:10049000413061F421B381E090E002C0880F991FE0
:1004A0006A95E2F7822B81BB81E0089521B381E058
:1004B00090E002C0880F991F6A95E2F78095822329
:1004C00081BB81E0089580E0089580E0089580E098
:0604D000089580E008958C
:1004D6009FEB980F943008F07EC0683008F07DC01E
:1004E600423008F07CC0823429F118F4813439F0A6
:1004F60078C08334D1F1843409F452C072C04130DB
:1005060061F42BB381E090E002C0880F991F6A95D1
:10051600E2F7822B8BBB81E008952BB381E090E05C
:1005260002C0880F991F6A95E2F7809582238BBBDC
:1005360081E00895413061F428B381E090E002C083
:10054600880F991F6A95E2F7822B88BB81E0089590
:1005560028B381E090E002C0880F991F6A95E2F700
:100566008095822388BB81E00895413061F425B3EC
:1005760081E090E002C0880F991F6A95E2F7822B0E
:1005860085BB81E0089525B381E090E002C0880F25
:10059600991F6A95E2F78095822385BB81E00895CD
:1005A600413061F422B381E090E002C0880F991FC8
:1005B6006A95E2F7822B82BB81E0089522B381E03F
:1005C60090E002C0880F991F6A95E2F78095822312
:1005D60082BB81E0089580E0089580E0089580E080
:0605E600089580E0089575
:1005EC00CF93DF930F92CDB7DEB719829FEB980FA5
:1005FC00943008F062C0683008F05FC08234F9F0C3
:10060C0018F4813439F059C0833471F1843409F40D
:10061C0040C053C049B381E090E09C01062E02C05B
:10062C00220F331F0A94E2F7842F90E08223932346
:10063C0002C0959587956A95E2F789833EC046B3CB
:10064C0081E090E09C01062E02C0220F331F0A9419
:10065C00E2F7842F90E08223932302C0959587952F
:10066C006A95E2F7898329C043B381E090E09C014D
:10067C00062E02C0220F331F0A94E2F7842F90E05B
:10068C008223932302C0959587956A95E2F7898317
:10069C0014C040B381E090E09C01062E02C0220FF2
:1006AC00331F0A94E2F7842F90E08223932302C035
:1006BC00959587956A95E2F7898389810F90DF91EB
:0406CC00CF9108952D
:1006D00041E060E081E40E94E00141E061E081E40A
:1006E0000E94E00141E062E081E40E94E00141E01B
:1006F00067E082E40E94E00141E066E082E40E945B
:10070000E00141E065E082E40E94E00141E064E054
:1007100082E40E94E0018FE59AEE0197F1F700C0B4
:10072000000082E00E9457048FE295E70197F1F7FD
:1007300000C0000088E20E9457048FE99FE0019703
:10074000F1F700C000008CE00E9457048FE99FE0A1
:100750000197F1F700C0000081E00E9457048FE28A
:1007600095E70197F1F700C0000086E00E9457046A
:100770008FE99FE00197F1F700C000001092780028
:020780000895DA
:100782000E94680380E690E00E943E0440E061E03F
:1007920083E40E94E00140E062E083E40E94E00121
:1007A20061E083E40E94F60280937A0062E083E4CF
:1007B2000E94F6028093790080917A00813049F498
:1007C20002C00E94F803809179008130D1F7109223
:1007D2007A0080917900813019F702C00E941B04CF
:0E07E20080917A008130D1F710927900D9CF42
:1007F000CF93C1E01CC062E083E40E94F6028093C4
:1008000079008130B1F00E9468036C2F81E00E9472
:1008100087048AE690E00E943E042FEF80E792E092
:10082000215080409040E1F700C00000CF5FCF3002
:0608300010F3CF910895C2
:10083600CF93C0E01CC061E083E40E94F60280937F
:100846007A008130B1F00E9468036C2F81E00E942B
:10085600870482E790E00E943E042FEF80E792E053
:10086600215080409040E1F700C00000CF5FCF30BC
:0608760010F3CF9108957C
:10087C000F931F93CF938C01C0E009C00E946F04AB
:10088C00CF5F8FE99FE00197F1F700C00000F801FE
:10089C00EC0FF11D80818111F1CFCF911F910F9140
:0208AC000895AD
:1008AE00CF93C82F807F0E945A008FE99FE0019757
:1008BE00F1F700C000008C2F8295807F0E945A00B5
:1008CE008FE99FE00197F1F700C00000CF910895E6
:1008DE00CF93C82F807F0E941D018FE99FE0019763
:1008EE00F1F700C000008C2F8295807F0E941D01C1
:1008FE008FE99FE00197F1F700C00000CF910895B6
:10090E00603170F4813019F0823031F0089580E852
:10091E00860F0E945704089580EC860F0E9457049C
:02092E0008952A
:10093000EC010E94A8040E94A704CE010E94A90411
:06094000CE010E94A50497
:040946000C9400000D
:04094A000E945800AF
:02094E0008950A
:02095000089508
:02095200089506
:0A09540057454C434F4D452121004B
:08095E004D4F48414D45440096
:0609660053414C41480022
:00000001FF
